{
  "contractName": "DigitalTwinManagement",
  "abi": [
    {
      "inputs": [],
      "stateMutability": "nonpayable",
      "type": "constructor"
    },
    {
      "anonymous": false,
      "inputs": [
        {
          "indexed": false,
          "internalType": "uint256",
          "name": "fileId",
          "type": "uint256"
        },
        {
          "indexed": false,
          "internalType": "uint256",
          "name": "rejections",
          "type": "uint256"
        }
      ],
      "name": "ApprovalFailed",
      "type": "event"
    },
    {
      "anonymous": false,
      "inputs": [
        {
          "indexed": false,
          "internalType": "uint256",
          "name": "fileId",
          "type": "uint256"
        },
        {
          "indexed": false,
          "internalType": "string",
          "name": "ipfsHash",
          "type": "string"
        },
        {
          "indexed": false,
          "internalType": "address",
          "name": "requester",
          "type": "address"
        }
      ],
      "name": "ApprovalRequested",
      "type": "event"
    },
    {
      "anonymous": false,
      "inputs": [
        {
          "indexed": false,
          "internalType": "uint256",
          "name": "fileId",
          "type": "uint256"
        },
        {
          "indexed": false,
          "internalType": "uint256",
          "name": "approvals",
          "type": "uint256"
        },
        {
          "indexed": false,
          "internalType": "uint256",
          "name": "rejections",
          "type": "uint256"
        }
      ],
      "name": "ApprovalUpdated",
      "type": "event"
    },
    {
      "anonymous": false,
      "inputs": [
        {
          "indexed": false,
          "internalType": "uint256",
          "name": "fileId",
          "type": "uint256"
        },
        {
          "indexed": false,
          "internalType": "string",
          "name": "newIpfsHash",
          "type": "string"
        }
      ],
      "name": "DocumentUpdated",
      "type": "event"
    },
    {
      "anonymous": false,
      "inputs": [
        {
          "indexed": false,
          "internalType": "uint256",
          "name": "fileId",
          "type": "uint256"
        },
        {
          "indexed": false,
          "internalType": "string",
          "name": "oldFileHash",
          "type": "string"
        },
        {
          "indexed": false,
          "internalType": "string",
          "name": "newFileHash",
          "type": "string"
        }
      ],
      "name": "FileHashUpdated",
      "type": "event"
    },
    {
      "anonymous": false,
      "inputs": [
        {
          "indexed": false,
          "internalType": "uint256",
          "name": "fileId",
          "type": "uint256"
        },
        {
          "indexed": false,
          "internalType": "string",
          "name": "fileHash",
          "type": "string"
        },
        {
          "indexed": false,
          "internalType": "uint256",
          "name": "fileSize",
          "type": "uint256"
        },
        {
          "indexed": false,
          "internalType": "string",
          "name": "fileType",
          "type": "string"
        },
        {
          "indexed": false,
          "internalType": "string",
          "name": "fileName",
          "type": "string"
        },
        {
          "indexed": false,
          "internalType": "string",
          "name": "fileDescription",
          "type": "string"
        },
        {
          "indexed": false,
          "internalType": "uint256",
          "name": "uploadTime",
          "type": "uint256"
        },
        {
          "indexed": false,
          "internalType": "address",
          "name": "uploader",
          "type": "address"
        }
      ],
      "name": "FileUploaded",
      "type": "event"
    },
    {
      "anonymous": false,
      "inputs": [
        {
          "indexed": false,
          "internalType": "uint256",
          "name": "fileId",
          "type": "uint256"
        },
        {
          "indexed": false,
          "internalType": "string",
          "name": "newIpfsHash",
          "type": "string"
        },
        {
          "indexed": false,
          "internalType": "uint256",
          "name": "approvals",
          "type": "uint256"
        }
      ],
      "name": "UpdateApproved",
      "type": "event"
    },
    {
      "anonymous": false,
      "inputs": [
        {
          "indexed": false,
          "internalType": "uint256",
          "name": "fileId",
          "type": "uint256"
        },
        {
          "indexed": false,
          "internalType": "string",
          "name": "newIpfsHash",
          "type": "string"
        },
        {
          "indexed": false,
          "internalType": "address",
          "name": "requester",
          "type": "address"
        }
      ],
      "name": "UpdateRequested",
      "type": "event"
    },
    {
      "inputs": [],
      "name": "admin",
      "outputs": [
        {
          "internalType": "address",
          "name": "",
          "type": "address"
        }
      ],
      "stateMutability": "view",
      "type": "function",
      "constant": true
    },
    {
      "inputs": [],
      "name": "approverCount",
      "outputs": [
        {
          "internalType": "uint256",
          "name": "",
          "type": "uint256"
        }
      ],
      "stateMutability": "view",
      "type": "function",
      "constant": true
    },
    {
      "inputs": [
        {
          "internalType": "address",
          "name": "",
          "type": "address"
        }
      ],
      "name": "approvers",
      "outputs": [
        {
          "internalType": "bool",
          "name": "",
          "type": "bool"
        }
      ],
      "stateMutability": "view",
      "type": "function",
      "constant": true
    },
    {
      "inputs": [
        {
          "internalType": "uint256",
          "name": "",
          "type": "uint256"
        }
      ],
      "name": "consentRequests",
      "outputs": [
        {
          "internalType": "uint256",
          "name": "fileId",
          "type": "uint256"
        },
        {
          "internalType": "string",
          "name": "ipfsHash",
          "type": "string"
        },
        {
          "internalType": "address",
          "name": "requester",
          "type": "address"
        },
        {
          "internalType": "uint256",
          "name": "approvals",
          "type": "uint256"
        },
        {
          "internalType": "uint256",
          "name": "rejections",
          "type": "uint256"
        },
        {
          "internalType": "bool",
          "name": "isFinalized",
          "type": "bool"
        }
      ],
      "stateMutability": "view",
      "type": "function",
      "constant": true
    },
    {
      "inputs": [],
      "name": "fileCount",
      "outputs": [
        {
          "internalType": "uint256",
          "name": "",
          "type": "uint256"
        }
      ],
      "stateMutability": "view",
      "type": "function",
      "constant": true
    },
    {
      "inputs": [
        {
          "internalType": "uint256",
          "name": "",
          "type": "uint256"
        }
      ],
      "name": "files",
      "outputs": [
        {
          "internalType": "uint256",
          "name": "fileID",
          "type": "uint256"
        },
        {
          "internalType": "string",
          "name": "fileHash",
          "type": "string"
        },
        {
          "internalType": "uint256",
          "name": "fileSize",
          "type": "uint256"
        },
        {
          "internalType": "string",
          "name": "fileType",
          "type": "string"
        },
        {
          "internalType": "string",
          "name": "fileName",
          "type": "string"
        },
        {
          "internalType": "string",
          "name": "fileDescription",
          "type": "string"
        },
        {
          "internalType": "uint256",
          "name": "uploadTime",
          "type": "uint256"
        },
        {
          "internalType": "address payable",
          "name": "uploader",
          "type": "address"
        }
      ],
      "stateMutability": "view",
      "type": "function",
      "constant": true
    },
    {
      "inputs": [
        {
          "internalType": "address",
          "name": "",
          "type": "address"
        }
      ],
      "name": "participants",
      "outputs": [
        {
          "internalType": "address",
          "name": "participantAddress",
          "type": "address"
        },
        {
          "internalType": "enum DigitalTwinManagement.ParticipantState",
          "name": "state",
          "type": "uint8"
        },
        {
          "internalType": "bool",
          "name": "isRegistered",
          "type": "bool"
        }
      ],
      "stateMutability": "view",
      "type": "function",
      "constant": true
    },
    {
      "inputs": [],
      "name": "totalApprovers",
      "outputs": [
        {
          "internalType": "uint256",
          "name": "",
          "type": "uint256"
        }
      ],
      "stateMutability": "view",
      "type": "function",
      "constant": true
    },
    {
      "inputs": [
        {
          "internalType": "uint256",
          "name": "",
          "type": "uint256"
        }
      ],
      "name": "updateRequests",
      "outputs": [
        {
          "internalType": "uint256",
          "name": "fileId",
          "type": "uint256"
        },
        {
          "internalType": "string",
          "name": "newIpfsHash",
          "type": "string"
        },
        {
          "internalType": "address",
          "name": "requester",
          "type": "address"
        },
        {
          "internalType": "uint256",
          "name": "approvals",
          "type": "uint256"
        },
        {
          "internalType": "bool",
          "name": "isApproved",
          "type": "bool"
        }
      ],
      "stateMutability": "view",
      "type": "function",
      "constant": true
    },
    {
      "inputs": [
        {
          "internalType": "string",
          "name": "_fileHash",
          "type": "string"
        },
        {
          "internalType": "uint256",
          "name": "_fileSize",
          "type": "uint256"
        },
        {
          "internalType": "string",
          "name": "_fileType",
          "type": "string"
        },
        {
          "internalType": "string",
          "name": "_fileName",
          "type": "string"
        },
        {
          "internalType": "string",
          "name": "_fileDescription",
          "type": "string"
        }
      ],
      "name": "uploadFile",
      "outputs": [],
      "stateMutability": "nonpayable",
      "type": "function"
    },
    {
      "inputs": [
        {
          "internalType": "uint256",
          "name": "_fileId",
          "type": "uint256"
        },
        {
          "internalType": "string",
          "name": "_newFileHash",
          "type": "string"
        }
      ],
      "name": "updateFileHash",
      "outputs": [],
      "stateMutability": "nonpayable",
      "type": "function"
    },
    {
      "inputs": [
        {
          "internalType": "address",
          "name": "_user",
          "type": "address"
        }
      ],
      "name": "registerUser",
      "outputs": [],
      "stateMutability": "nonpayable",
      "type": "function"
    },
    {
      "inputs": [
        {
          "internalType": "address",
          "name": "_approver",
          "type": "address"
        }
      ],
      "name": "registerApprover",
      "outputs": [],
      "stateMutability": "nonpayable",
      "type": "function"
    },
    {
      "inputs": [
        {
          "internalType": "uint256",
          "name": "_fileId",
          "type": "uint256"
        },
        {
          "internalType": "string",
          "name": "_newIpfsHash",
          "type": "string"
        }
      ],
      "name": "requestUpdate",
      "outputs": [],
      "stateMutability": "nonpayable",
      "type": "function"
    },
    {
      "inputs": [
        {
          "internalType": "uint256",
          "name": "_fileId",
          "type": "uint256"
        }
      ],
      "name": "approveUpdate",
      "outputs": [],
      "stateMutability": "nonpayable",
      "type": "function"
    },
    {
      "inputs": [
        {
          "internalType": "uint256",
          "name": "_fileId",
          "type": "uint256"
        },
        {
          "internalType": "string",
          "name": "_ipfsHash",
          "type": "string"
        }
      ],
      "name": "requestApproval",
      "outputs": [],
      "stateMutability": "nonpayable",
      "type": "function"
    },
    {
      "inputs": [
        {
          "internalType": "uint256",
          "name": "_fileId",
          "type": "uint256"
        }
      ],
      "name": "approveConsent",
      "outputs": [],
      "stateMutability": "nonpayable",
      "type": "function"
    },
    {
      "inputs": [
        {
          "internalType": "uint256",
          "name": "_fileId",
          "type": "uint256"
        }
      ],
      "name": "rejectConsent",
      "outputs": [],
      "stateMutability": "nonpayable",
      "type": "function"
    }
  ],
  "bytecode": "0x608060405260006001556000600255600060035534801561001f57600080fd5b50336000806101000a81548173ffffffffffffffffffffffffffffffffffffffff021916908373ffffffffffffffffffffffffffffffffffffffff1602179055506136398061006f6000396000f3fe608060405234801561001057600080fd5b50600436106101165760003560e01c806374b25b8e116100a2578063e82d9d3311610071578063e82d9d33146102e8578063f4c714b414610304578063f57a43c71461033b578063f851a44014610357578063fda032471461037557610116565b806374b25b8e14610245578063ace5429714610263578063c427fc2114610297578063c7e8eb45146102cc57610116565b80631c6c4dbe116100e95780631c6c4dbe146101b75780632199d5cd146101d35780633d11ebbf146101ef578063439535191461020b5780635ec2b0e41461022957610116565b806309e69ede1461011b5780630a1443911461014d5780630f55cb1e1461017d578063128e9be614610199575b600080fd5b610135600480360381019061013091906122b0565b610391565b60405161014493929190612bf7565b60405180910390f35b610167600480360381019061016291906122b0565b6103f5565b6040516101749190612c2e565b60405180910390f35b610197600480360381019061019291906123b0565b610415565b005b6101a16107e9565b6040516101ae9190612ec9565b60405180910390f35b6101d160048036038101906101cc91906123d9565b6107ef565b005b6101ed60048036038101906101e891906122b0565b610b7f565b005b610209600480360381019061020491906123d9565b610d7c565b005b610213610ff3565b6040516102209190612ec9565b60405180910390f35b610243600480360381019061023e91906123b0565b610ff9565b005b61024d61129f565b60405161025a9190612ec9565b60405180910390f35b61027d600480360381019061027891906123b0565b6112a5565b60405161028e959493929190612f22565b60405180910390f35b6102b160048036038101906102ac91906123b0565b611390565b6040516102c396959493929190612f7c565b60405180910390f35b6102e660048036038101906102e191906123d9565b611481565b005b61030260048036038101906102fd91906122d9565b611808565b005b61031e600480360381019061031991906123b0565b611b04565b6040516103329897969594939291906130c3565b60405180910390f35b610355600480360381019061035091906122b0565b611d8c565b005b61035f611ea5565b60405161036c9190612bdc565b60405180910390f35b61038f600480360381019061038a91906123b0565b611ec9565b005b60056020528060005260406000206000915090508060000160009054906101000a900473ffffffffffffffffffffffffffffffffffffffff16908060000160149054906101000a900460ff16908060000160159054906101000a900460ff16905083565b60066020528060005260406000206000915054906101000a900460ff1681565b600660003373ffffffffffffffffffffffffffffffffffffffff1673ffffffffffffffffffffffffffffffffffffffff16815260200190815260200160002060009054906101000a900460ff166104a1576040517f08c379a000000000000000000000000000000000000000000000000000000000815260040161049890612d29565b60405180910390fd5b6000600760008381526020019081526020016000209050600081600001541415610500576040517f08c379a00000000000000000000000000000000000000000000000000000000081526004016104f790612e49565b60405180910390fd5b8060040160003373ffffffffffffffffffffffffffffffffffffffff1673ffffffffffffffffffffffffffffffffffffffff16815260200190815260200160002060009054906101000a900460ff161561058f576040517f08c379a000000000000000000000000000000000000000000000000000000000815260040161058690612c49565b60405180910390fd5b60018160040160003373ffffffffffffffffffffffffffffffffffffffff1673ffffffffffffffffffffffffffffffffffffffff16815260200190815260200160002060006101000a81548160ff0219169083151502179055508060030160008154809291906105fe9061347c565b919050555060036002805461061391906132f9565b61061d91906132c8565b8160030154106107a2576106bd8282600101805461063a9061344a565b80601f01602080910402602001604051908101604052809291908181526020018280546106669061344a565b80156106b35780601f10610688576101008083540402835291602001916106b3565b820191906000526020600020905b81548152906001019060200180831161069657829003601f168201915b5050505050610d7c565b60018160050160006101000a81548160ff0219169083151502179055507f20297096221fa45cf89de8bdcc534356afd5568db828d81dc1612863edcc115d828260010160405161070e92919061315d565b60405180910390a16000816003018190555060005b60025481101561079c576000808360040160008373ffffffffffffffffffffffffffffffffffffffff1673ffffffffffffffffffffffffffffffffffffffff16815260200190815260200160002060006101000a81548160ff0219169083151502179055505080806107949061347c565b915050610723565b506107e5565b7feb329d73554e24a816b5dcd12a7fdeea8a7227e894afe5ffa27d358332209f16828260010183600301546040516107dc9392919061318d565b60405180910390a15b5050565b60025481565b600560003373ffffffffffffffffffffffffffffffffffffffff1673ffffffffffffffffffffffffffffffffffffffff16815260200190815260200160002060000160159054906101000a900460ff1661087e576040517f08c379a000000000000000000000000000000000000000000000000000000000815260040161087590612cc9565b60405180910390fd5b60006004600084815260200190815260200160002090506000816000015414156108dd576040517f08c379a00000000000000000000000000000000000000000000000000000000081526004016108d490612e29565b60405180910390fd5b8060070160009054906101000a900473ffffffffffffffffffffffffffffffffffffffff1673ffffffffffffffffffffffffffffffffffffffff163373ffffffffffffffffffffffffffffffffffffffff161461096f576040517f08c379a000000000000000000000000000000000000000000000000000000000815260040161096690612ea9565b60405180910390fd5b816040516020016109809190612bae565b60405160208183030381529060405280519060200120816001016040516020016109aa9190612bc5565b6040516020818303038152906040528051906020012014610a00576040517f08c379a00000000000000000000000000000000000000000000000000000000081526004016109f790612e89565b60405180910390fd5b6004600560003373ffffffffffffffffffffffffffffffffffffffff1673ffffffffffffffffffffffffffffffffffffffff16815260200190815260200160002060000160146101000a81548160ff02191690836004811115610a8c577f4e487b7100000000000000000000000000000000000000000000000000000000600052602160045260246000fd5b0217905550600060086000858152602001908152602001600020905083816000018190555082816001019080519060200190610ac992919061217b565b50338160020160006101000a81548173ffffffffffffffffffffffffffffffffffffffff021916908373ffffffffffffffffffffffffffffffffffffffff160217905550600081600301819055506000816004018190555060008160050160006101000a81548160ff0219169083151502179055507f7c2e82e6f1cdcab673cc34c375f2928b0d05ab44e8001c4762522fcbdc635eab848433604051610b7193929190612ee4565b60405180910390a150505050565b60008054906101000a900473ffffffffffffffffffffffffffffffffffffffff1673ffffffffffffffffffffffffffffffffffffffff163373ffffffffffffffffffffffffffffffffffffffff1614610c0d576040517f08c379a0000000000000000000000000000000000000000000000000000000008152600401610c0490612e69565b60405180910390fd5b60405180606001604052808273ffffffffffffffffffffffffffffffffffffffff16815260200160006004811115610c6e577f4e487b7100000000000000000000000000000000000000000000000000000000600052602160045260246000fd5b815260200160011515815250600560008373ffffffffffffffffffffffffffffffffffffffff1673ffffffffffffffffffffffffffffffffffffffff16815260200190815260200160002060008201518160000160006101000a81548173ffffffffffffffffffffffffffffffffffffffff021916908373ffffffffffffffffffffffffffffffffffffffff16021790555060208201518160000160146101000a81548160ff02191690836004811115610d51577f4e487b7100000000000000000000000000000000000000000000000000000000600052602160045260246000fd5b021790555060408201518160000160156101000a81548160ff02191690831515021790555090505050565b600082118015610d8e57506001548211155b610dcd576040517f08c379a0000000000000000000000000000000000000000000000000000000008152600401610dc490612c89565b60405180910390fd5b60006004600084815260200190815260200160002090508060070160009054906101000a900473ffffffffffffffffffffffffffffffffffffffff1673ffffffffffffffffffffffffffffffffffffffff163373ffffffffffffffffffffffffffffffffffffffff1614610e76576040517f08c379a0000000000000000000000000000000000000000000000000000000008152600401610e6d90612e09565b60405180910390fd5b81604051602001610e879190612bae565b6040516020818303038152906040528051906020012081600101604051602001610eb19190612bc5565b604051602081830303815290604052805190602001201415610f08576040517f08c379a0000000000000000000000000000000000000000000000000000000008152600401610eff90612de9565b60405180910390fd5b6000816001018054610f199061344a565b80601f0160208091040260200160405190810160405280929190818152602001828054610f459061344a565b8015610f925780601f10610f6757610100808354040283529160200191610f92565b820191906000526020600020905b815481529060010190602001808311610f7557829003601f168201915b5050505050905082826001019080519060200190610fb192919061217b565b507fba4a4cdef22350587d287071b44a59c93d5c9c0716e3ba1fe9874390d823e6a0848285604051610fe593929190612fe4565b60405180910390a150505050565b60015481565b600660003373ffffffffffffffffffffffffffffffffffffffff1673ffffffffffffffffffffffffffffffffffffffff16815260200190815260200160002060009054906101000a900460ff16611085576040517f08c379a000000000000000000000000000000000000000000000000000000000815260040161107c90612d29565b60405180910390fd5b60006008600083815260200190815260200160002090506000816000015414156110e4576040517f08c379a00000000000000000000000000000000000000000000000000000000081526004016110db90612ca9565b60405180910390fd5b8060050160009054906101000a900460ff1615611136576040517f08c379a000000000000000000000000000000000000000000000000000000000815260040161112d90612c69565b60405180910390fd5b60028160060160003373ffffffffffffffffffffffffffffffffffffffff1673ffffffffffffffffffffffffffffffffffffffff16815260200190815260200160002060006101000a81548160ff021916908360028111156111c1577f4e487b7100000000000000000000000000000000000000000000000000000000600052602160045260246000fd5b02179055508060040160008154809291906111db9061347c565b9190505550600380546111ee91906132c8565b8160040154106112575760018160050160006101000a81548160ff0219169083151502179055507f97029bacbb30946f8e8a739728ddfb792f80f5aae87913f5de2f3e4613bd306782826004015460405161124a9291906131cb565b60405180910390a161129b565b7fda4bd2ea351b72d1a0ace37c381ff426e3f4d0d1e7b5b040e550f47c998bf7f88282600301548360040154604051611292939291906131f4565b60405180910390a15b5050565b60035481565b60076020528060005260406000206000915090508060000154908060010180546112ce9061344a565b80601f01602080910402602001604051908101604052809291908181526020018280546112fa9061344a565b80156113475780601f1061131c57610100808354040283529160200191611347565b820191906000526020600020905b81548152906001019060200180831161132a57829003601f168201915b5050505050908060020160009054906101000a900473ffffffffffffffffffffffffffffffffffffffff16908060030154908060050160009054906101000a900460ff16905085565b60086020528060005260406000206000915090508060000154908060010180546113b99061344a565b80601f01602080910402602001604051908101604052809291908181526020018280546113e59061344a565b80156114325780601f1061140757610100808354040283529160200191611432565b820191906000526020600020905b81548152906001019060200180831161141557829003601f168201915b5050505050908060020160009054906101000a900473ffffffffffffffffffffffffffffffffffffffff16908060030154908060040154908060050160009054906101000a900460ff16905086565b600560003373ffffffffffffffffffffffffffffffffffffffff1673ffffffffffffffffffffffffffffffffffffffff16815260200190815260200160002060000160159054906101000a900460ff16611510576040517f08c379a000000000000000000000000000000000000000000000000000000000815260040161150790612cc9565b60405180910390fd5b600060046000848152602001908152602001600020905060008160000154141561156f576040517f08c379a000000000000000000000000000000000000000000000000000000000815260040161156690612e29565b60405180910390fd5b8060070160009054906101000a900473ffffffffffffffffffffffffffffffffffffffff1673ffffffffffffffffffffffffffffffffffffffff163373ffffffffffffffffffffffffffffffffffffffff1614611601576040517f08c379a00000000000000000000000000000000000000000000000000000000081526004016115f890612d69565b60405180910390fd5b816040516020016116129190612bae565b604051602081830303815290604052805190602001208160010160405160200161163c9190612bc5565b604051602081830303815290604052805190602001201415611693576040517f08c379a000000000000000000000000000000000000000000000000000000000815260040161168a90612d49565b60405180910390fd5b6001600560003373ffffffffffffffffffffffffffffffffffffffff1673ffffffffffffffffffffffffffffffffffffffff16815260200190815260200160002060000160146101000a81548160ff0219169083600481111561171f577f4e487b7100000000000000000000000000000000000000000000000000000000600052602160045260246000fd5b021790555060006007600085815260200190815260200160002090508381600001819055508281600101908051906020019061175c92919061217b565b50338160020160006101000a81548173ffffffffffffffffffffffffffffffffffffffff021916908373ffffffffffffffffffffffffffffffffffffffff1602179055506000816003018190555060008160050160006101000a81548160ff0219169083151502179055507fbf9142e5bc4370e37328c400dd7b22dd6d48caaab9a39ee79cdb111cbd4428ab8484336040516117fa93929190612ee4565b60405180910390a150505050565b600085511161184c576040517f08c379a000000000000000000000000000000000000000000000000000000000815260040161184390612d09565b60405180910390fd5b6000841161188f576040517f08c379a000000000000000000000000000000000000000000000000000000000815260040161188690612dc9565b60405180910390fd5b60008351116118d3576040517f08c379a00000000000000000000000000000000000000000000000000000000081526004016118ca90612ce9565b60405180910390fd5b6000825111611917576040517f08c379a000000000000000000000000000000000000000000000000000000000815260040161190e90612da9565b60405180910390fd5b600081511161195b576040517f08c379a000000000000000000000000000000000000000000000000000000000815260040161195290612d89565b60405180910390fd5b6001600081548092919061196e9061347c565b919050555060405180610100016040528060015481526020018681526020018581526020018481526020018381526020018281526020014281526020013373ffffffffffffffffffffffffffffffffffffffff16815250600460006001548152602001908152602001600020600082015181600001556020820151816001019080519060200190611a0092919061217b565b50604082015181600201556060820151816003019080519060200190611a2792919061217b565b506080820151816004019080519060200190611a4492919061217b565b5060a0820151816005019080519060200190611a6192919061217b565b5060c0820151816006015560e08201518160070160006101000a81548173ffffffffffffffffffffffffffffffffffffffff021916908373ffffffffffffffffffffffffffffffffffffffff1602179055509050507f6e95bbaa37a5fdec42a312e049dea2fe6160ebe659214d3409b4f91f164c2f5260015486868686864233604051611af5989796959493929190613029565b60405180910390a15050505050565b6004602052806000526040600020600091509050806000015490806001018054611b2d9061344a565b80601f0160208091040260200160405190810160405280929190818152602001828054611b599061344a565b8015611ba65780601f10611b7b57610100808354040283529160200191611ba6565b820191906000526020600020905b815481529060010190602001808311611b8957829003601f168201915b505050505090806002015490806003018054611bc19061344a565b80601f0160208091040260200160405190810160405280929190818152602001828054611bed9061344a565b8015611c3a5780601f10611c0f57610100808354040283529160200191611c3a565b820191906000526020600020905b815481529060010190602001808311611c1d57829003601f168201915b505050505090806004018054611c4f9061344a565b80601f0160208091040260200160405190810160405280929190818152602001828054611c7b9061344a565b8015611cc85780601f10611c9d57610100808354040283529160200191611cc8565b820191906000526020600020905b815481529060010190602001808311611cab57829003601f168201915b505050505090806005018054611cdd9061344a565b80601f0160208091040260200160405190810160405280929190818152602001828054611d099061344a565b8015611d565780601f10611d2b57610100808354040283529160200191611d56565b820191906000526020600020905b815481529060010190602001808311611d3957829003601f168201915b5050505050908060060154908060070160009054906101000a900473ffffffffffffffffffffffffffffffffffffffff16905088565b60008054906101000a900473ffffffffffffffffffffffffffffffffffffffff1673ffffffffffffffffffffffffffffffffffffffff163373ffffffffffffffffffffffffffffffffffffffff1614611e1a576040517f08c379a0000000000000000000000000000000000000000000000000000000008152600401611e1190612e69565b60405180910390fd5b6001600660008373ffffffffffffffffffffffffffffffffffffffff1673ffffffffffffffffffffffffffffffffffffffff16815260200190815260200160002060006101000a81548160ff02191690831515021790555060026000815480929190611e859061347c565b919050555060036000815480929190611e9d9061347c565b919050555050565b60008054906101000a900473ffffffffffffffffffffffffffffffffffffffff1681565b600660003373ffffffffffffffffffffffffffffffffffffffff1673ffffffffffffffffffffffffffffffffffffffff16815260200190815260200160002060009054906101000a900460ff16611f55576040517f08c379a0000000000000000000000000000000000000000000000000000000008152600401611f4c90612d29565b60405180910390fd5b6000600860008381526020019081526020016000209050600081600001541415611fb4576040517f08c379a0000000000000000000000000000000000000000000000000000000008152600401611fab90612ca9565b60405180910390fd5b8060050160009054906101000a900460ff1615612006576040517f08c379a0000000000000000000000000000000000000000000000000000000008152600401611ffd90612c69565b60405180910390fd5b60018160060160003373ffffffffffffffffffffffffffffffffffffffff1673ffffffffffffffffffffffffffffffffffffffff16815260200190815260200160002060006101000a81548160ff02191690836002811115612091577f4e487b7100000000000000000000000000000000000000000000000000000000600052602160045260246000fd5b02179055508060030160008154809291906120ab9061347c565b9190505550600360026003546120c191906132f9565b6120cb91906132c8565b8160030154106121335760018160050160006101000a81548160ff0219169083151502179055507f20297096221fa45cf89de8bdcc534356afd5568db828d81dc1612863edcc115d828260010160405161212692919061315d565b60405180910390a1612177565b7fda4bd2ea351b72d1a0ace37c381ff426e3f4d0d1e7b5b040e550f47c998bf7f8828260030154836004015460405161216e939291906131f4565b60405180910390a15b5050565b8280546121879061344a565b90600052602060002090601f0160209004810192826121a957600085556121f0565b82601f106121c257805160ff19168380011785556121f0565b828001600101855582156121f0579182015b828111156121ef5782518255916020019190600101906121d4565b5b5090506121fd9190612201565b5090565b5b8082111561221a576000816000905550600101612202565b5090565b600061223161222c8461325c565b61322b565b90508281526020810184848401111561224957600080fd5b612254848285613408565b509392505050565b60008135905061226b816135d5565b92915050565b600082601f83011261228257600080fd5b813561229284826020860161221e565b91505092915050565b6000813590506122aa816135ec565b92915050565b6000602082840312156122c257600080fd5b60006122d08482850161225c565b91505092915050565b600080600080600060a086880312156122f157600080fd5b600086013567ffffffffffffffff81111561230b57600080fd5b61231788828901612271565b95505060206123288882890161229b565b945050604086013567ffffffffffffffff81111561234557600080fd5b61235188828901612271565b935050606086013567ffffffffffffffff81111561236e57600080fd5b61237a88828901612271565b925050608086013567ffffffffffffffff81111561239757600080fd5b6123a388828901612271565b9150509295509295909350565b6000602082840312156123c257600080fd5b60006123d08482850161229b565b91505092915050565b600080604083850312156123ec57600080fd5b60006123fa8582860161229b565b925050602083013567ffffffffffffffff81111561241757600080fd5b61242385828601612271565b9150509250929050565b612436816133c0565b82525050565b61244581613365565b82525050565b61245481613353565b82525050565b61246381613377565b82525050565b612472816133d2565b82525050565b6000612483826132a1565b61248d81856132ac565b935061249d818560208601613417565b6124a6816135b0565b840191505092915050565b60006124bc826132a1565b6124c681856132bd565b93506124d6818560208601613417565b80840191505092915050565b600081546124ef8161344a565b6124f981866132ac565b94506001821660008114612514576001811461252657612559565b60ff1983168652602086019350612559565b61252f8561328c565b60005b8381101561255157815481890152600182019150602081019050612532565b808801955050505b50505092915050565b6000815461256f8161344a565b61257981866132bd565b9450600182166000811461259457600181146125a5576125d8565b60ff198316865281860193506125d8565b6125ae8561328c565b60005b838110156125d0578154818901526001820191506020810190506125b1565b838801955050505b50505092915050565b60006125ee601a836132ac565b91507f417070726f7665722068617320616c726561647920766f7465640000000000006000830152602082019050919050565b600061262e601a836132ac565b91507f417070726f76616c20616c72656164792066696e616c697a65640000000000006000830152602082019050919050565b600061266e600f836132ac565b91507f496e76616c69642066696c6520494400000000000000000000000000000000006000830152602082019050919050565b60006126ae601f836132ac565b91507f417070726f76616c207265717565737420646f6573206e6f74206578697374006000830152602082019050919050565b60006126ee6013836132ac565b91507f55736572206e6f742072656769737465726564000000000000000000000000006000830152602082019050919050565b600061272e6015836132ac565b91507f46696c65207479706520697320726571756972656400000000000000000000006000830152602082019050919050565b600061276e6015836132ac565b91507f46696c65206861736820697320726571756972656400000000000000000000006000830152602082019050919050565b60006127ae601b836132ac565b91507f4f6e6c7920617070726f766572732063616e2076616c696461746500000000006000830152602082019050919050565b60006127ee601f836132ac565b91507f446f63756d656e742068617368206d75737420626520646966666572656e74006000830152602082019050919050565b600061282e6027836132ac565b91507f4f6e6c79207468652075706c6f616465722063616e207265717565737420616e60008301527f20757064617465000000000000000000000000000000000000000000000000006020830152604082019050919050565b6000612894601c836132ac565b91507f46696c65206465736372697074696f6e206973207265717569726564000000006000830152602082019050919050565b60006128d46015836132ac565b91507f46696c65206e616d6520697320726571756972656400000000000000000000006000830152602082019050919050565b60006129146025836132ac565b91507f46696c652073697a652073686f756c642062652067726561746572207468616e60008301527f207a65726f0000000000000000000000000000000000000000000000000000006020830152604082019050919050565b600061297a601a836132ac565b91507f4e65772068617368206d75737420626520646966666572656e740000000000006000830152602082019050919050565b60006129ba602a836132ac565b91507f4f6e6c79207468652075706c6f616465722063616e207570646174652074686560008301527f2066696c652068617368000000000000000000000000000000000000000000006020830152604082019050919050565b6000612a206013836132ac565b91507f46696c6520646f6573206e6f74206578697374000000000000000000000000006000830152602082019050919050565b6000612a60601d836132ac565b91507f557064617465207265717565737420646f6573206e6f742065786973740000006000830152602082019050919050565b6000612aa06022836132ac565b91507f4f6e6c792061646d696e2063616e20706572666f726d2074686973206163746960008301527f6f6e0000000000000000000000000000000000000000000000000000000000006020830152604082019050919050565b6000612b066012836132ac565b91507f495046532068617368206d69736d6174636800000000000000000000000000006000830152602082019050919050565b6000612b466022836132ac565b91507f4f6e6c792075706c6f616465722063616e207265717565737420617070726f7660008301527f616c0000000000000000000000000000000000000000000000000000000000006020830152604082019050919050565b612ba8816133b6565b82525050565b6000612bba82846124b1565b915081905092915050565b6000612bd18284612562565b915081905092915050565b6000602082019050612bf1600083018461244b565b92915050565b6000606082019050612c0c600083018661244b565b612c196020830185612469565b612c26604083018461245a565b949350505050565b6000602082019050612c43600083018461245a565b92915050565b60006020820190508181036000830152612c62816125e1565b9050919050565b60006020820190508181036000830152612c8281612621565b9050919050565b60006020820190508181036000830152612ca281612661565b9050919050565b60006020820190508181036000830152612cc2816126a1565b9050919050565b60006020820190508181036000830152612ce2816126e1565b9050919050565b60006020820190508181036000830152612d0281612721565b9050919050565b60006020820190508181036000830152612d2281612761565b9050919050565b60006020820190508181036000830152612d42816127a1565b9050919050565b60006020820190508181036000830152612d62816127e1565b9050919050565b60006020820190508181036000830152612d8281612821565b9050919050565b60006020820190508181036000830152612da281612887565b9050919050565b60006020820190508181036000830152612dc2816128c7565b9050919050565b60006020820190508181036000830152612de281612907565b9050919050565b60006020820190508181036000830152612e028161296d565b9050919050565b60006020820190508181036000830152612e22816129ad565b9050919050565b60006020820190508181036000830152612e4281612a13565b9050919050565b60006020820190508181036000830152612e6281612a53565b9050919050565b60006020820190508181036000830152612e8281612a93565b9050919050565b60006020820190508181036000830152612ea281612af9565b9050919050565b60006020820190508181036000830152612ec281612b39565b9050919050565b6000602082019050612ede6000830184612b9f565b92915050565b6000606082019050612ef96000830186612b9f565b8181036020830152612f0b8185612478565b9050612f1a604083018461244b565b949350505050565b600060a082019050612f376000830188612b9f565b8181036020830152612f498187612478565b9050612f58604083018661244b565b612f656060830185612b9f565b612f72608083018461245a565b9695505050505050565b600060c082019050612f916000830189612b9f565b8181036020830152612fa38188612478565b9050612fb2604083018761244b565b612fbf6060830186612b9f565b612fcc6080830185612b9f565b612fd960a083018461245a565b979650505050505050565b6000606082019050612ff96000830186612b9f565b818103602083015261300b8185612478565b9050818103604083015261301f8184612478565b9050949350505050565b60006101008201905061303f600083018b612b9f565b8181036020830152613051818a612478565b90506130606040830189612b9f565b81810360608301526130728188612478565b905081810360808301526130868187612478565b905081810360a083015261309a8186612478565b90506130a960c0830185612b9f565b6130b660e083018461242d565b9998505050505050505050565b6000610100820190506130d9600083018b612b9f565b81810360208301526130eb818a612478565b90506130fa6040830189612b9f565b818103606083015261310c8188612478565b905081810360808301526131208187612478565b905081810360a08301526131348186612478565b905061314360c0830185612b9f565b61315060e083018461243c565b9998505050505050505050565b60006040820190506131726000830185612b9f565b818103602083015261318481846124e2565b90509392505050565b60006060820190506131a26000830186612b9f565b81810360208301526131b481856124e2565b90506131c36040830184612b9f565b949350505050565b60006040820190506131e06000830185612b9f565b6131ed6020830184612b9f565b9392505050565b60006060820190506132096000830186612b9f565b6132166020830185612b9f565b6132236040830184612b9f565b949350505050565b6000604051905081810181811067ffffffffffffffff8211171561325257613251613581565b5b8060405250919050565b600067ffffffffffffffff82111561327757613276613581565b5b601f19601f8301169050602081019050919050565b60008190508160005260206000209050919050565b600081519050919050565b600082825260208201905092915050565b600081905092915050565b60006132d3826133b6565b91506132de836133b6565b9250826132ee576132ed6134f4565b5b828204905092915050565b6000613304826133b6565b915061330f836133b6565b9250817fffffffffffffffffffffffffffffffffffffffffffffffffffffffffffffffff0483118215151615613348576133476134c5565b5b828202905092915050565b600061335e82613396565b9050919050565b600061337082613396565b9050919050565b60008115159050919050565b6000819050613391826135c1565b919050565b600073ffffffffffffffffffffffffffffffffffffffff82169050919050565b6000819050919050565b60006133cb826133e4565b9050919050565b60006133dd82613383565b9050919050565b60006133ef826133f6565b9050919050565b600061340182613396565b9050919050565b82818337600083830152505050565b60005b8381101561343557808201518184015260208101905061341a565b83811115613444576000848401525b50505050565b6000600282049050600182168061346257607f821691505b6020821081141561347657613475613552565b5b50919050565b6000613487826133b6565b91507fffffffffffffffffffffffffffffffffffffffffffffffffffffffffffffffff8214156134ba576134b96134c5565b5b600182019050919050565b7f4e487b7100000000000000000000000000000000000000000000000000000000600052601160045260246000fd5b7f4e487b7100000000000000000000000000000000000000000000000000000000600052601260045260246000fd5b7f4e487b7100000000000000000000000000000000000000000000000000000000600052602160045260246000fd5b7f4e487b7100000000000000000000000000000000000000000000000000000000600052602260045260246000fd5b7f4e487b7100000000000000000000000000000000000000000000000000000000600052604160045260246000fd5b6000601f19601f8301169050919050565b600581106135d2576135d1613523565b5b50565b6135de81613353565b81146135e957600080fd5b50565b6135f5816133b6565b811461360057600080fd5b5056fea2646970667358221220ca0543daf74a9814d2c6bf9ad37ff9c608ac072813cccab6370b62c33de4b46e64736f6c63430008000033",
  "immutableReferences": {},
  "source": "// SPDX-License-Identifier: MIT\r\npragma solidity ^0.8.0;\r\n\r\ncontract DigitalTwinManagement {\r\n    address public admin;\r\n    uint public fileCount = 0;\r\n    uint public approverCount = 0;\r\n    uint public totalApprovers = 0;\r\n    \r\n    enum DocumentState { Created, WaitForApproversSignature, Updated }\r\n    enum ParticipantState { NotSubmitted, SubmittedForApproval, UpdatedDocument, ApprovalNotProvided, ApprovalProvided }\r\n    enum ApproverState { NotApproved, ApprovalSuccess, ApprovalFailed }\r\n\r\n    struct File {\r\n        uint fileID;\r\n        string fileHash;\r\n        uint fileSize;\r\n        string fileType;\r\n        string fileName;\r\n        string fileDescription;\r\n        uint uploadTime;\r\n        address payable uploader;\r\n    }\r\n\r\n    struct Participant {\r\n        address participantAddress;\r\n        ParticipantState state;\r\n        bool isRegistered;\r\n    }\r\n\r\n    struct UpdateRequest {\r\n        uint fileId; // Added fileId field\r\n        string newIpfsHash;\r\n        address requester;\r\n        uint approvals;\r\n        mapping(address => bool) approverVotes;\r\n        bool isApproved;\r\n    }\r\n\r\n    struct ConsentRequest {\r\n        uint fileId;\r\n        string ipfsHash;\r\n        address requester;\r\n        uint approvals;\r\n        uint rejections;\r\n        bool isFinalized;\r\n        mapping(address => ApproverState) approverVotes;\r\n    }\r\n\r\n    mapping(uint => File) public files;\r\n    mapping(address => Participant) public participants;\r\n    mapping(address => bool) public approvers;\r\n    mapping(uint => UpdateRequest) public updateRequests;\r\n    mapping(uint => ConsentRequest) public consentRequests;\r\n\r\n    event FileUploaded(uint fileId, string fileHash, uint fileSize, string fileType, string fileName, string fileDescription, uint uploadTime, address uploader);\r\n    event FileHashUpdated(uint fileId, string oldFileHash, string newFileHash);\r\n    event UpdateRequested(uint fileId, string newIpfsHash, address requester);\r\n    event UpdateApproved(uint fileId, string newIpfsHash, uint approvals);\r\n    event DocumentUpdated(uint fileId, string newIpfsHash);\r\n    event ApprovalRequested(uint fileId, string ipfsHash, address requester);\r\n    event ApprovalUpdated(uint fileId, uint approvals, uint rejections);\r\n    event ApprovalFailed(uint fileId, uint rejections);\r\n\r\n    modifier onlyAdmin() {\r\n        require(msg.sender == admin, \"Only admin can perform this action\");\r\n        _;\r\n    }\r\n\r\n    modifier onlyRegisteredUser() {\r\n        require(participants[msg.sender].isRegistered, \"User not registered\");\r\n        _;\r\n    }\r\n\r\n    modifier onlyApprover() {\r\n        require(approvers[msg.sender], \"Only approvers can validate\");\r\n        _;\r\n    }\r\n\r\n    constructor() {\r\n        admin = msg.sender;\r\n    }\r\n\r\n    // Function to upload a new file\r\n    function uploadFile(\r\n        string memory _fileHash,\r\n        uint _fileSize,\r\n        string memory _fileType,\r\n        string memory _fileName,\r\n        string memory _fileDescription\r\n    ) public {\r\n        require(bytes(_fileHash).length > 0, \"File hash is required\");\r\n        require(_fileSize > 0, \"File size should be greater than zero\");\r\n        require(bytes(_fileType).length > 0, \"File type is required\");\r\n        require(bytes(_fileName).length > 0, \"File name is required\");\r\n        require(bytes(_fileDescription).length > 0, \"File description is required\");\r\n\r\n        fileCount++;\r\n        files[fileCount] = File(\r\n            fileCount,\r\n            _fileHash,\r\n            _fileSize,\r\n            _fileType,\r\n            _fileName,\r\n            _fileDescription,\r\n            block.timestamp,\r\n            payable(msg.sender)\r\n        );\r\n\r\n        emit FileUploaded(fileCount, _fileHash, _fileSize, _fileType, _fileName, _fileDescription, block.timestamp, payable(msg.sender));\r\n    }\r\n\r\n    // Function to update the file hash (versioning)\r\n    function updateFileHash(uint _fileId, string memory _newFileHash) public {\r\n        require(_fileId > 0 && _fileId <= fileCount, \"Invalid file ID\");\r\n        File storage file = files[_fileId];\r\n        require(msg.sender == file.uploader, \"Only the uploader can update the file hash\");\r\n        require(keccak256(abi.encodePacked(file.fileHash)) != keccak256(abi.encodePacked(_newFileHash)), \"New hash must be different\");\r\n\r\n        string memory oldHash = file.fileHash;\r\n        file.fileHash = _newFileHash;\r\n\r\n        emit FileHashUpdated(_fileId, oldHash, _newFileHash);\r\n    }\r\n\r\n    // Admin function to register users\r\n    function registerUser(address _user) public onlyAdmin {\r\n        participants[_user] = Participant(_user, ParticipantState.NotSubmitted, true);\r\n    }\r\n\r\n    // Admin function to register approvers\r\n    function registerApprover(address _approver) public onlyAdmin {\r\n        approvers[_approver] = true;\r\n        approverCount++;\r\n        totalApprovers++; // Update totalApprovers when adding a new approver\r\n    }\r\n\r\n    // Function for users to request document update approval\r\n    function requestUpdate(uint _fileId, string memory _newIpfsHash) public onlyRegisteredUser {\r\n        File storage file = files[_fileId];\r\n        require(file.fileID != 0, \"File does not exist\");\r\n        require(msg.sender == file.uploader, \"Only the uploader can request an update\");\r\n        require(keccak256(abi.encodePacked(file.fileHash)) != keccak256(abi.encodePacked(_newIpfsHash)), \"Document hash must be different\");\r\n\r\n        participants[msg.sender].state = ParticipantState.SubmittedForApproval;\r\n\r\n        UpdateRequest storage request = updateRequests[_fileId];\r\n        request.fileId = _fileId; // Set the fileId in the UpdateRequest\r\n        request.newIpfsHash = _newIpfsHash;\r\n        request.requester = msg.sender;\r\n        request.approvals = 0;\r\n        request.isApproved = false;\r\n\r\n        emit UpdateRequested(_fileId, _newIpfsHash, msg.sender);\r\n    }\r\n\r\n    // Function for approvers to approve document update\r\n    function approveUpdate(uint _fileId) public onlyApprover {\r\n        UpdateRequest storage request = updateRequests[_fileId];\r\n        require(request.fileId != 0, \"Update request does not exist\");\r\n        require(!request.approverVotes[msg.sender], \"Approver has already voted\");\r\n\r\n        request.approverVotes[msg.sender] = true;\r\n        request.approvals++;\r\n\r\n        if (request.approvals >= (approverCount * 2) / 3) {\r\n            updateFileHash(_fileId, request.newIpfsHash);\r\n            request.isApproved = true;\r\n            emit DocumentUpdated(_fileId, request.newIpfsHash);\r\n\r\n            // Reset approvals and approverVotes\r\n            request.approvals = 0;\r\n            for (uint i = 0; i < approverCount; i++) {\r\n                address approver = address(0); // TODO: Get the i-th approver address\r\n                request.approverVotes[approver] = false;\r\n            }\r\n        } else {\r\n            emit UpdateApproved(_fileId, request.newIpfsHash, request.approvals);\r\n        }\r\n    }\r\n\r\n    // Function for users to request consent for document approval\r\n    function requestApproval(uint _fileId, string memory _ipfsHash) public onlyRegisteredUser {\r\n        File storage file = files[_fileId];\r\n\r\n        require(file.fileID != 0, \"File does not exist\");\r\n        require(msg.sender == file.uploader, \"Only uploader can request approval\");\r\n        require(keccak256(abi.encodePacked(file.fileHash)) == keccak256(abi.encodePacked(_ipfsHash)), \"IPFS hash mismatch\");\r\n\r\n        participants[msg.sender].state = ParticipantState.ApprovalProvided;\r\n\r\n        ConsentRequest storage request = consentRequests[_fileId];\r\n        request.fileId = _fileId;\r\n        request.ipfsHash = _ipfsHash;\r\n        request.requester = msg.sender;\r\n        request.approvals = 0;\r\n        request.rejections = 0;\r\n        request.isFinalized = false;\r\n\r\n        emit ApprovalRequested(_fileId, _ipfsHash, msg.sender);\r\n    }\r\n\r\n    // Function for approvers to approve the document consent\r\n    function approveConsent(uint _fileId) public onlyApprover {\r\n        ConsentRequest storage request = consentRequests[_fileId];\r\n\r\n        require(request.fileId != 0, \"Approval request does not exist\");\r\n        require(!request.isFinalized, \"Approval already finalized\");\r\n\r\n        request.approverVotes[msg.sender] = ApproverState.ApprovalSuccess;\r\n        request.approvals++;\r\n\r\n        if (request.approvals >= (totalApprovers * 2) / 3) {\r\n            request.isFinalized = true;\r\n            emit DocumentUpdated(_fileId, request.ipfsHash);\r\n        } else {\r\n            emit ApprovalUpdated(_fileId, request.approvals, request.rejections);\r\n        }\r\n    }\r\n\r\n    // Function for approvers to reject the document consent\r\n    function rejectConsent(uint _fileId) public onlyApprover {\r\n        ConsentRequest storage request = consentRequests[_fileId];\r\n\r\n        require(request.fileId != 0, \"Approval request does not exist\");\r\n        require(!request.isFinalized, \"Approval already finalized\");\r\n\r\n        request.approverVotes[msg.sender] = ApproverState.ApprovalFailed;\r\n        request.rejections++;\r\n\r\n        if (request.rejections >= totalApprovers / 3) {\r\n            request.isFinalized = true;\r\n            emit ApprovalFailed(_fileId, request.rejections);\r\n        } else {\r\n            emit ApprovalUpdated(_fileId, request.approvals, request.rejections);\r\n        }\r\n    }\r\n}",
  "sourcePath": "C:\\Users\\Sai Keerthi\\OneDrive\\Desktop\\digital-twin-dapp\\contracts\\DigitalTwinManagement.sol",
  "compiler": {
    "name": "solc",
    "version": "0.8.0+commit.c7dfd78e.Emscripten.clang"
  },
  "schemaVersion": "3.4.16",
  "updatedAt": "2025-03-04T19:15:45.706Z",
  "networkType": "ethereum",
  "devdoc": {
    "kind": "dev",
    "methods": {},
    "version": 1
  },
  "userdoc": {
    "kind": "user",
    "methods": {},
    "version": 1
  }
}